{
  "contractName": "Controlled",
  "abi": [
    {
      "constant": false,
      "inputs": [
        {
          "name": "_newController",
          "type": "address"
        }
      ],
      "name": "changeController",
      "outputs": [],
      "payable": false,
      "type": "function"
    },
    {
      "constant": true,
      "inputs": [],
      "name": "controller",
      "outputs": [
        {
          "name": "",
          "type": "address"
        }
      ],
      "payable": false,
      "type": "function"
    },
    {
      "inputs": [],
      "payable": false,
      "type": "constructor"
    }
  ],
  "bytecode": "0x6060604052341561000f57600080fd5b60008054600160a060020a033316600160a060020a031990911617905561015d8061003b6000396000f300606060405263ffffffff7c01000000000000000000000000000000000000000000000000000000006000350416633cebb8238114610047578063f77c47911461007557600080fd5b341561005257600080fd5b61007373ffffffffffffffffffffffffffffffffffffffff600435166100b1565b005b341561008057600080fd5b610088610115565b60405173ffffffffffffffffffffffffffffffffffffffff909116815260200160405180910390f35b6000543373ffffffffffffffffffffffffffffffffffffffff9081169116146100d957600080fd5b6000805473ffffffffffffffffffffffffffffffffffffffff191673ffffffffffffffffffffffffffffffffffffffff92909216919091179055565b60005473ffffffffffffffffffffffffffffffffffffffff16815600a165627a7a723058202e0cbac5beec33559135471dad79def124028d859b1ab189f7de2c390fa622ee0029",
  "source": "pragma solidity ^0.4.17;\n\ncontract Controlled {\n    /// @notice The address of the controller is the only address that can call\n    ///  a function with this modifier\n    modifier onlyController { require(msg.sender == controller); _; }\n\n    address public controller;\n\n    function Controlled() public { controller = msg.sender;}\n\n    /// @notice Changes the controller of the contract\n    /// @param _newController The new controller of the contract\n    function changeController(address _newController) public onlyController {\n        controller = _newController;\n    }\n}",
  "sourcePath": "/Users/nieldlr/Coding/Projects/ethereum/patronage/contracts/minime/Controlled.sol",
  "schemaVersion": "1.0.0",
  "updatedAt": "2017-10-25T11:18:31.189Z",
  "contract_name": "Controlled",
  "unlinked_binary": "0x6060604052341561000f57600080fd5b5b60008054600160a060020a03191633600160a060020a03161790555b5b61015c8061003c6000396000f300606060405263ffffffff7c01000000000000000000000000000000000000000000000000000000006000350416633cebb8238114610048578063f77c479114610076575b600080fd5b341561005357600080fd5b61007473ffffffffffffffffffffffffffffffffffffffff600435166100b2565b005b341561008157600080fd5b610089610114565b60405173ffffffffffffffffffffffffffffffffffffffff909116815260200160405180910390f35b6000543373ffffffffffffffffffffffffffffffffffffffff9081169116146100da57600080fd5b6000805473ffffffffffffffffffffffffffffffffffffffff191673ffffffffffffffffffffffffffffffffffffffff83161790555b5b50565b60005473ffffffffffffffffffffffffffffffffffffffff16815600a165627a7a72305820cdcfc6d3b1a78e7144c3d5b2a852686e219688f3c747dcc98f22d5f72c7687e60029",
  "schema_version": "0.0.5",
  "updated_at": 1517035430500
}