{
  "contractName": "MiniMeTokenFactory",
  "abi": [
    {
      "constant": false,
      "inputs": [
        {
          "name": "_parentToken",
          "type": "address"
        },
        {
          "name": "_snapshotBlock",
          "type": "uint256"
        },
        {
          "name": "_tokenName",
          "type": "string"
        },
        {
          "name": "_decimalUnits",
          "type": "uint8"
        },
        {
          "name": "_tokenSymbol",
          "type": "string"
        },
        {
          "name": "_transfersEnabled",
          "type": "bool"
        }
      ],
      "name": "createCloneToken",
      "outputs": [
        {
          "name": "",
          "type": "address"
        }
      ],
      "payable": false,
      "type": "function"
    }
  ],
  "bytecode": "0x6060604052341561000f57600080fd5b611d9d8061001e6000396000f300606060405263ffffffff7c01000000000000000000000000000000000000000000000000000000006000350416635b7b72c1811461003c57600080fd5b341561004757600080fd5b6101006004803573ffffffffffffffffffffffffffffffffffffffff169060248035919060649060443590810190830135806020601f8201819004810201604051908101604052818152929190602084018383808284378201915050505050509190803560ff1690602001909190803590602001908201803590602001908080601f0160208091040260200160405190810160405281815292919060208401838380828437509496505050509135151591506101299050565b60405173ffffffffffffffffffffffffffffffffffffffff909116815260200160405180910390f35b6000803088888888888861013b61030a565b73ffffffffffffffffffffffffffffffffffffffff8089168252871660208201526040810186905260ff8416608082015281151560c082015260e0606082018181529060a0830190830187818151815260200191508051906020019080838360005b838110156101b557808201518382015260200161019d565b50505050905090810190601f1680156101e25780820380516001836020036101000a031916815260200191505b50838103825285818151815260200191508051906020019080838360005b83811015610218578082015183820152602001610200565b50505050905090810190601f1680156102455780820380516001836020036101000a031916815260200191505b509950505050505050505050604051809103906000f080151561026757600080fd5b90508073ffffffffffffffffffffffffffffffffffffffff16633cebb823336040517c010000000000000000000000000000000000000000000000000000000063ffffffff841602815273ffffffffffffffffffffffffffffffffffffffff9091166004820152602401600060405180830381600087803b15156102ea57600080fd5b6102c65a03f115156102fb57600080fd5b50919998505050505050505050565b604051611a578061031b833901905600606060405260408051908101604052600781527f4d4d545f302e3200000000000000000000000000000000000000000000000000602082015260049080516200004d92916020019062000162565b5034156200005a57600080fd5b60405162001a5738038062001a57833981016040528080519190602001805191906020018051919060200180518201919060200180519190602001805182019190602001805160008054600160a060020a03338116600160a060020a031990921691909117909155600b8054918b166101000261010060a860020a0319909216919091179055915060019050848051620000f992916020019062000162565b506002805460ff191660ff851617905560038280516200011e92916020019062000162565b5060058054600160a060020a031916600160a060020a039790971696909617909555505050600655600b805460ff1916911515919091179055504360075562000207565b828054600181600116156101000203166002900490600052602060002090601f016020900481019282601f10620001a557805160ff1916838001178555620001d5565b82800160010185558215620001d5579182015b82811115620001d5578251825591602001919060010190620001b8565b50620001e3929150620001e7565b5090565b6200020491905b80821115620001e35760008155600101620001ee565b90565b61184080620002176000396000f3006060604052361561012d5763ffffffff60e060020a60003504166306fdde0381146101d2578063095ea7b31461025c578063176345141461029257806318160ddd146102b757806323b872dd146102ca578063313ce567146102f25780633cebb8231461031b5780634ee2cd7e1461033a57806354fd4d501461035c5780636638c0871461036f57806370a082311461043357806380a5400114610452578063827f32c01461046557806395d89b4114610487578063981b24d01461049a578063a9059cbb146104b0578063bef97c87146104d2578063c5bcc4f1146104e5578063cae9ca51146104f8578063d3ce77fe1461055d578063dd62ed3e1461057f578063df8de3e7146105a4578063e77772fe146105c3578063f41e60c5146105d6578063f77c4791146105ee575b60005461014290600160a060020a0316610601565b151561014d57600080fd5b60008054600160a060020a03169063f48c305490349033906040516020015260405160e060020a63ffffffff8516028152600160a060020a0390911660048201526024016020604051808303818588803b15156101a957600080fd5b6125ee5a03f115156101ba57600080fd5b505050506040518051905015156101d057600080fd5b005b34156101dd57600080fd5b6101e561062e565b60405160208082528190810183818151815260200191508051906020019080838360005b83811015610221578082015183820152602001610209565b50505050905090810190601f16801561024e5780820380516001836020036101000a031916815260200191505b509250505060405180910390f35b341561026757600080fd5b61027e600160a060020a03600435166024356106cc565b604051901515815260200160405180910390f35b341561029d57600080fd5b6102a5610835565b60405190815260200160405180910390f35b34156102c257600080fd5b6102a561083b565b34156102d557600080fd5b61027e600160a060020a036004358116906024351660443561084c565b34156102fd57600080fd5b6103056108ee565b60405160ff909116815260200160405180910390f35b341561032657600080fd5b6101d0600160a060020a03600435166108f7565b341561034557600080fd5b6102a5600160a060020a0360043516602435610941565b341561036757600080fd5b6101e5610a77565b341561037a57600080fd5b61041760046024813581810190830135806020601f8201819004810201604051908101604052818152929190602084018383808284378201915050505050509190803560ff1690602001909190803590602001908201803590602001908080601f016020809104026020016040519081016040528181529291906020840183838082843750949650508435946020013515159350610ae292505050565b604051600160a060020a03909116815260200160405180910390f35b341561043e57600080fd5b6102a5600160a060020a0360043516610d0c565b341561045d57600080fd5b610417610d20565b341561047057600080fd5b61027e600160a060020a0360043516602435610d2f565b341561049257600080fd5b6101e5610dff565b34156104a557600080fd5b6102a5600435610e6a565b34156104bb57600080fd5b61027e600160a060020a0360043516602435610f53565b34156104dd57600080fd5b61027e610f72565b34156104f057600080fd5b6102a5610f7b565b341561050357600080fd5b61027e60048035600160a060020a03169060248035919060649060443590810190830135806020601f82018190048102016040519081016040528181529291906020840183838082843750949650610f8195505050505050565b341561056857600080fd5b61027e600160a060020a036004351660243561109c565b341561058a57600080fd5b6102a5600160a060020a0360043581169060243516611166565b34156105af57600080fd5b6101d0600160a060020a0360043516611191565b34156105ce57600080fd5b61041761133d565b34156105e157600080fd5b6101d06004351515611351565b34156105f957600080fd5b61041761137f565b600080600160a060020a038316151561061d5760009150610628565b823b90506000811191505b50919050565b60018054600181600116156101000203166002900480601f0160208091040260200160405190810160405280929190818152602001828054600181600116156101000203166002900480156106c45780601f10610699576101008083540402835291602001916106c4565b820191906000526020600020905b8154815290600101906020018083116106a757829003601f168201915b505050505081565b600b5460009060ff1615156106e057600080fd5b8115806107105750600160a060020a03338116600090815260096020908152604080832093871683529290522054155b151561071b57600080fd5b60005461073090600160a060020a0316610601565b156107cb5760008054600160a060020a03169063da682aeb903390869086906040516020015260405160e060020a63ffffffff8616028152600160a060020a0393841660048201529190921660248201526044810191909152606401602060405180830381600087803b15156107a557600080fd5b6102c65a03f115156107b657600080fd5b5050506040518051905015156107cb57600080fd5b600160a060020a03338116600081815260096020908152604080832094881680845294909152908190208590557f8c5be1e5ebec7d5bd14f71427d1e84f3dd0314c0f7b2291e5b200ac8c7c3b9259085905190815260200160405180910390a35060015b92915050565b60075481565b600061084643610e6a565b90505b90565b6000805433600160a060020a039081169116146108d957600b5460ff16151561087457600080fd5b600160a060020a0380851660009081526009602090815260408083203390941683529290522054829010156108ab575060006108e7565b600160a060020a03808516600090815260096020908152604080832033909416835292905220805483900390555b6108e484848461138e565b90505b9392505050565b60025460ff1681565b60005433600160a060020a0390811691161461091257600080fd5b6000805473ffffffffffffffffffffffffffffffffffffffff1916600160a060020a0392909216919091179055565b600160a060020a038216600090815260086020526040812054158061099d5750600160a060020a03831660009081526008602052604081208054849290811061098657fe5b6000918252602090912001546001608060020a0316115b15610a4e57600554600160a060020a031615610a4657600554600654600160a060020a0390911690634ee2cd7e9085906109d890869061156c565b60006040516020015260405160e060020a63ffffffff8516028152600160a060020a0390921660048301526024820152604401602060405180830381600087803b1515610a2457600080fd5b6102c65a03f11515610a3557600080fd5b50505060405180519050905061082f565b50600061082f565b600160a060020a0383166000908152600860205260409020610a709083611582565b905061082f565b60048054600181600116156101000203166002900480601f0160208091040260200160405190810160405280929190818152602001828054600181600116156101000203166002900480156106c45780601f10610699576101008083540402835291602001916106c4565b600080831515610af0574393505b600b546101009004600160a060020a0316635b7b72c130868a8a8a8960006040516020015260405160e060020a63ffffffff8916028152600160a060020a038716600482019081526024820187905260ff8516606483015282151560a483015260c0604483019081529091608481019060c40187818151815260200191508051906020019080838360005b83811015610b93578082015183820152602001610b7b565b50505050905090810190601f168015610bc05780820380516001836020036101000a031916815260200191505b50838103825285818151815260200191508051906020019080838360005b83811015610bf6578082015183820152602001610bde565b50505050905090810190601f168015610c235780820380516001836020036101000a031916815260200191505b5098505050505050505050602060405180830381600087803b1515610c4757600080fd5b6102c65a03f11515610c5857600080fd5b5050506040518051915050600160a060020a038116633cebb8233360405160e060020a63ffffffff8416028152600160a060020a039091166004820152602401600060405180830381600087803b1515610cb157600080fd5b6102c65a03f11515610cc257600080fd5b50505080600160a060020a03167f086c875b377f900b07ce03575813022f05dd10ed7640b5282cf6d3c3fc352ade8560405190815260200160405180910390a29695505050505050565b6000610d188243610941565b90505b919050565b600554600160a060020a031681565b600080548190819033600160a060020a03908116911614610d4f57600080fd5b610d5761083b565b915083820182901015610d6957600080fd5b610d7285610d0c565b905083810181901015610d8457600080fd5b610d91600a8584016116e1565b600160a060020a0385166000908152600860205260409020610db5908286016116e1565b84600160a060020a031660007fddf252ad1be2c89b69c2b068fc378daa952ba7f163c4a11628f55a4df523b3ef8660405190815260200160405180910390a3506001949350505050565b60038054600181600116156101000203166002900480601f0160208091040260200160405190810160405280929190818152602001828054600181600116156101000203166002900480156106c45780601f10610699576101008083540402835291602001916106c4565b600a546000901580610e9f575081600a6000815481101515610e8857fe5b6000918252602090912001546001608060020a0316115b15610f4157600554600160a060020a031615610f3957600554600654600160a060020a039091169063981b24d090610ed890859061156c565b60006040516020015260405160e060020a63ffffffff84160281526004810191909152602401602060405180830381600087803b1515610f1757600080fd5b6102c65a03f11515610f2857600080fd5b505050604051805190509050610d1b565b506000610d1b565b610f4c600a83611582565b9050610d1b565b600b5460009060ff161515610f6757600080fd5b6108e733848461138e565b600b5460ff1681565b60065481565b6000610f8d84846106cc565b1515610f9857600080fd5b83600160a060020a0316638f4ffcb1338530866040518563ffffffff1660e060020a0281526004018085600160a060020a0316600160a060020a0316815260200184815260200183600160a060020a0316600160a060020a0316815260200180602001828103825283818151815260200191508051906020019080838360005b83811015611030578082015183820152602001611018565b50505050905090810190601f16801561105d5780820380516001836020036101000a031916815260200191505b5095505050505050600060405180830381600087803b151561107e57600080fd5b6102c65a03f1151561108f57600080fd5b5060019695505050505050565b600080548190819033600160a060020a039081169116146110bc57600080fd5b6110c461083b565b9150838210156110d357600080fd5b6110dc85610d0c565b9050838110156110eb57600080fd5b6110f8600a8584036116e1565b600160a060020a038516600090815260086020526040902061111c908583036116e1565b600085600160a060020a03167fddf252ad1be2c89b69c2b068fc378daa952ba7f163c4a11628f55a4df523b3ef8660405190815260200160405180910390a3506001949350505050565b600160a060020a03918216600090815260096020908152604080832093909416825291909152205490565b60008054819033600160a060020a039081169116146111af57600080fd5b600160a060020a03831615156111fd57600054600160a060020a039081169030163180156108fc0290604051600060405180830381858888f1935050505015156111f857600080fd5b611338565b82915081600160a060020a03166370a082313060006040516020015260405160e060020a63ffffffff8416028152600160a060020a039091166004820152602401602060405180830381600087803b151561125757600080fd5b6102c65a03f1151561126857600080fd5b505050604051805160008054919350600160a060020a03808616935063a9059cbb92169084906040516020015260405160e060020a63ffffffff8516028152600160a060020a0390921660048301526024820152604401602060405180830381600087803b15156112d857600080fd5b6102c65a03f115156112e957600080fd5b50505060405180515050600054600160a060020a039081169084167ff931edb47c50b4b4104c187b5814a9aef5f709e17e2ecf9617e860cacade929c8360405190815260200160405180910390a35b505050565b600b546101009004600160a060020a031681565b60005433600160a060020a0390811691161461136c57600080fd5b600b805460ff1916911515919091179055565b600054600160a060020a031681565b600080808315156113a25760019250611563565b6006544390106113b157600080fd5b600160a060020a038516158015906113db575030600160a060020a031685600160a060020a031614155b15156113e657600080fd5b6113f08643610941565b9150838210156114035760009250611563565b60005461141890600160a060020a0316610601565b156114b35760008054600160a060020a031690634a393149908890889088906040516020015260405160e060020a63ffffffff8616028152600160a060020a0393841660048201529190921660248201526044810191909152606401602060405180830381600087803b151561148d57600080fd5b6102c65a03f1151561149e57600080fd5b5050506040518051905015156114b357600080fd5b600160a060020a03861660009081526008602052604090206114d7908584036116e1565b6114e18543610941565b9050838101819010156114f357600080fd5b600160a060020a0385166000908152600860205260409020611517908286016116e1565b84600160a060020a031686600160a060020a03167fddf252ad1be2c89b69c2b068fc378daa952ba7f163c4a11628f55a4df523b3ef8660405190815260200160405180910390a3600192505b50509392505050565b600081831061157b57816108e7565b5090919050565b60008060008085805490506000141561159e57600093506116d8565b8554869060001981019081106115b057fe5b6000918252602090912001546001608060020a0316851061160d578554869060001981019081106115dd57fe5b60009182526020909120015470010000000000000000000000000000000090046001608060020a031693506116d8565b85600081548110151561161c57fe5b6000918252602090912001546001608060020a031685101561164157600093506116d8565b8554600093506000190191505b8282111561169e57600260018385010104905084868281548110151561167057fe5b6000918252602090912001546001608060020a03161161169257809250611699565b6001810391505b61164e565b85838154811015156116ac57fe5b60009182526020909120015470010000000000000000000000000000000090046001608060020a031693505b50505092915050565b81546000908190158061171a5750835443908590600019810190811061170357fe5b6000918252602090912001546001608060020a0316105b1561178c578354849061173082600183016117d7565b8154811061173a57fe5b600091825260209091200180546001608060020a03858116700100000000000000000000000000000000024382166fffffffffffffffffffffffffffffffff19909316929092171617815591506117d1565b83548490600019810190811061179e57fe5b600091825260209091200180546001608060020a0380861670010000000000000000000000000000000002911617815590505b50505050565b8154818355818115116113385760008381526020902061133891810190830161084991905b8082111561181057600081556001016117fc565b50905600a165627a7a72305820c4cef099219c91ef7b024820f220e7eb56fda870e2793cf1a57e6ef74db196a00029a165627a7a72305820e5d25dc5d9b1d25996aad1e55a267a02b904d2da7b8ddc60e0adbfe55b07003f0029",
  "source": "pragma solidity ^0.4.17;\n\n/*\n    Copyright 2016, Jordi Baylina\n\n    This program is free software: you can redistribute it and/or modify\n    it under the terms of the GNU General Public License as published by\n    the Free Software Foundation, either version 3 of the License, or\n    (at your option) any later version.\n\n    This program is distributed in the hope that it will be useful,\n    but WITHOUT ANY WARRANTY; without even the implied warranty of\n    MERCHANTABILITY or FITNESS FOR A PARTICULAR PURPOSE.  See the\n    GNU General Public License for more details.\n\n    You should have received a copy of the GNU General Public License\n    along with this program.  If not, see <http://www.gnu.org/licenses/>.\n */\n\n/// @title MiniMeToken Contract\n/// @author Jordi Baylina\n/// @dev This token contract's goal is to make it easy for anyone to clone this\n///  token using the token distribution at a given block, this will allow DAO's\n///  and DApps to upgrade their features in a decentralized manner without\n///  affecting the original token\n/// @dev It is ERC20 compliant, but still needs to under go further testing.\n\nimport \"./Controlled.sol\";\nimport \"./TokenController.sol\";\n\ncontract ApproveAndCallFallBack {\n    function receiveApproval(address from, uint256 _amount, address _token, bytes _data) public;\n}\n\n/// @dev The actual token contract, the default controller is the msg.sender\n///  that deploys the contract, so usually this token will be deployed by a\n///  token controller contract, which Giveth will call a \"Campaign\"\ncontract MiniMeToken is Controlled {\n\n    string public name;                //The Token's name: e.g. DigixDAO Tokens\n    uint8 public decimals;             //Number of decimals of the smallest unit\n    string public symbol;              //An identifier: e.g. REP\n    string public version = 'MMT_0.2'; //An arbitrary versioning scheme\n\n\n    /// @dev `Checkpoint` is the structure that attaches a block number to a\n    ///  given value, the block number attached is the one that last changed the\n    ///  value\n    struct  Checkpoint {\n\n        // `fromBlock` is the block number that the value was generated from\n        uint128 fromBlock;\n\n        // `value` is the amount of tokens at a specific block number\n        uint128 value;\n    }\n\n    // `parentToken` is the Token address that was cloned to produce this token;\n    //  it will be 0x0 for a token that was not cloned\n    MiniMeToken public parentToken;\n\n    // `parentSnapShotBlock` is the block number from the Parent Token that was\n    //  used to determine the initial distribution of the Clone Token\n    uint public parentSnapShotBlock;\n\n    // `creationBlock` is the block number that the Clone Token was created\n    uint public creationBlock;\n\n    // `balances` is the map that tracks the balance of each address, in this\n    //  contract when the balance changes the block number that the change\n    //  occurred is also included in the map\n    mapping (address => Checkpoint[]) balances;\n\n    // `allowed` tracks any extra transfer rights as in all ERC20 tokens\n    mapping (address => mapping (address => uint256)) allowed;\n\n    // Tracks the history of the `totalSupply` of the token\n    Checkpoint[] totalSupplyHistory;\n\n    // Flag that determines if the token is transferable or not.\n    bool public transfersEnabled;\n\n    // The factory used to create new clone tokens\n    MiniMeTokenFactory public tokenFactory;\n\n////////////////\n// Constructor\n////////////////\n\n    /// @notice Constructor to create a MiniMeToken\n    /// @param _tokenFactory The address of the MiniMeTokenFactory contract that\n    ///  will create the Clone token contracts, the token factory needs to be\n    ///  deployed first\n    /// @param _parentToken Address of the parent token, set to 0x0 if it is a\n    ///  new token\n    /// @param _parentSnapShotBlock Block of the parent token that will\n    ///  determine the initial distribution of the clone token, set to 0 if it\n    ///  is a new token\n    /// @param _tokenName Name of the new token\n    /// @param _decimalUnits Number of decimals of the new token\n    /// @param _tokenSymbol Token Symbol for the new token\n    /// @param _transfersEnabled If true, tokens will be able to be transferred\n    function MiniMeToken(\n        address _tokenFactory,\n        address _parentToken,\n        uint _parentSnapShotBlock,\n        string _tokenName,\n        uint8 _decimalUnits,\n        string _tokenSymbol,\n        bool _transfersEnabled\n    ) public {\n        tokenFactory = MiniMeTokenFactory(_tokenFactory);\n        name = _tokenName;                                 // Set the name\n        decimals = _decimalUnits;                          // Set the decimals\n        symbol = _tokenSymbol;                             // Set the symbol\n        parentToken = MiniMeToken(_parentToken);\n        parentSnapShotBlock = _parentSnapShotBlock;\n        transfersEnabled = _transfersEnabled;\n        creationBlock = block.number;\n    }\n\n\n///////////////////\n// ERC20 Methods\n///////////////////\n\n    /// @notice Send `_amount` tokens to `_to` from `msg.sender`\n    /// @param _to The address of the recipient\n    /// @param _amount The amount of tokens to be transferred\n    /// @return Whether the transfer was successful or not\n    function transfer(address _to, uint256 _amount) public returns (bool success) {\n        require(transfersEnabled);\n        return doTransfer(msg.sender, _to, _amount);\n    }\n\n    /// @notice Send `_amount` tokens to `_to` from `_from` on the condition it\n    ///  is approved by `_from`\n    /// @param _from The address holding the tokens being transferred\n    /// @param _to The address of the recipient\n    /// @param _amount The amount of tokens to be transferred\n    /// @return True if the transfer was successful\n    function transferFrom(address _from, address _to, uint256 _amount\n    ) public returns (bool success) {\n\n        // The controller of this contract can move tokens around at will,\n        //  this is important to recognize! Confirm that you trust the\n        //  controller of this contract, which in most situations should be\n        //  another open source smart contract or 0x0\n        if (msg.sender != controller) {\n            require(transfersEnabled);\n\n            // The standard ERC 20 transferFrom functionality\n            if (allowed[_from][msg.sender] < _amount) return false;\n            allowed[_from][msg.sender] -= _amount;\n        }\n        return doTransfer(_from, _to, _amount);\n    }\n\n    /// @dev This is the actual transfer function in the token contract, it can\n    ///  only be called by other functions in this contract.\n    /// @param _from The address holding the tokens being transferred\n    /// @param _to The address of the recipient\n    /// @param _amount The amount of tokens to be transferred\n    /// @return True if the transfer was successful\n    function doTransfer(address _from, address _to, uint _amount\n    ) internal returns(bool) {\n\n           if (_amount == 0) {\n               return true;\n           }\n\n           require(parentSnapShotBlock < block.number);\n\n           // Do not allow transfer to 0x0 or the token contract itself\n           require((_to != 0) && (_to != address(this)));\n\n           // If the amount being transfered is more than the balance of the\n           //  account the transfer returns false\n           var previousBalanceFrom = balanceOfAt(_from, block.number);\n           if (previousBalanceFrom < _amount) {\n               return false;\n           }\n\n           // Alerts the token controller of the transfer\n           if (isContract(controller)) {\n               require(TokenController(controller).onTransfer(_from, _to, _amount));\n           }\n\n           // First update the balance array with the new value for the address\n           //  sending the tokens\n           updateValueAtNow(balances[_from], previousBalanceFrom - _amount);\n\n           // Then update the balance array with the new value for the address\n           //  receiving the tokens\n           var previousBalanceTo = balanceOfAt(_to, block.number);\n           require(previousBalanceTo + _amount >= previousBalanceTo); // Check for overflow\n           updateValueAtNow(balances[_to], previousBalanceTo + _amount);\n\n           // An event to make the transfer easy to find on the blockchain\n           Transfer(_from, _to, _amount);\n\n           return true;\n    }\n\n    /// @param _owner The address that's balance is being requested\n    /// @return The balance of `_owner` at the current block\n    function balanceOf(address _owner) public constant returns (uint256 balance) {\n        return balanceOfAt(_owner, block.number);\n    }\n\n    /// @notice `msg.sender` approves `_spender` to spend `_amount` tokens on\n    ///  its behalf. This is a modified version of the ERC20 approve function\n    ///  to be a little bit safer\n    /// @param _spender The address of the account able to transfer the tokens\n    /// @param _amount The amount of tokens to be approved for transfer\n    /// @return True if the approval was successful\n    function approve(address _spender, uint256 _amount) public returns (bool success) {\n        require(transfersEnabled);\n\n        // To change the approve amount you first have to reduce the addresses`\n        //  allowance to zero by calling `approve(_spender,0)` if it is not\n        //  already 0 to mitigate the race condition described here:\n        //  https://github.com/ethereum/EIPs/issues/20#issuecomment-263524729\n        require((_amount == 0) || (allowed[msg.sender][_spender] == 0));\n\n        // Alerts the token controller of the approve function call\n        if (isContract(controller)) {\n            require(TokenController(controller).onApprove(msg.sender, _spender, _amount));\n        }\n\n        allowed[msg.sender][_spender] = _amount;\n        Approval(msg.sender, _spender, _amount);\n        return true;\n    }\n\n    /// @dev This function makes it easy to read the `allowed[]` map\n    /// @param _owner The address of the account that owns the token\n    /// @param _spender The address of the account able to transfer the tokens\n    /// @return Amount of remaining tokens of _owner that _spender is allowed\n    ///  to spend\n    function allowance(address _owner, address _spender\n    ) public constant returns (uint256 remaining) {\n        return allowed[_owner][_spender];\n    }\n\n    /// @notice `msg.sender` approves `_spender` to send `_amount` tokens on\n    ///  its behalf, and then a function is triggered in the contract that is\n    ///  being approved, `_spender`. This allows users to use their tokens to\n    ///  interact with contracts in one function call instead of two\n    /// @param _spender The address of the contract able to transfer the tokens\n    /// @param _amount The amount of tokens to be approved for transfer\n    /// @return True if the function call was successful\n    function approveAndCall(address _spender, uint256 _amount, bytes _extraData\n    ) public returns (bool success) {\n        require(approve(_spender, _amount));\n\n        ApproveAndCallFallBack(_spender).receiveApproval(\n            msg.sender,\n            _amount,\n            this,\n            _extraData\n        );\n\n        return true;\n    }\n\n    /// @dev This function makes it easy to get the total number of tokens\n    /// @return The total number of tokens\n    function totalSupply() public constant returns (uint) {\n        return totalSupplyAt(block.number);\n    }\n\n\n////////////////\n// Query balance and totalSupply in History\n////////////////\n\n    /// @dev Queries the balance of `_owner` at a specific `_blockNumber`\n    /// @param _owner The address from which the balance will be retrieved\n    /// @param _blockNumber The block number when the balance is queried\n    /// @return The balance at `_blockNumber`\n    function balanceOfAt(address _owner, uint _blockNumber) public constant\n        returns (uint) {\n\n        // These next few lines are used when the balance of the token is\n        //  requested before a check point was ever created for this token, it\n        //  requires that the `parentToken.balanceOfAt` be queried at the\n        //  genesis block for that token as this contains initial balance of\n        //  this token\n        if ((balances[_owner].length == 0)\n            || (balances[_owner][0].fromBlock > _blockNumber)) {\n            if (address(parentToken) != 0) {\n                return parentToken.balanceOfAt(_owner, min(_blockNumber, parentSnapShotBlock));\n            } else {\n                // Has no parent\n                return 0;\n            }\n\n        // This will return the expected balance during normal situations\n        } else {\n            return getValueAt(balances[_owner], _blockNumber);\n        }\n    }\n\n    /// @notice Total amount of tokens at a specific `_blockNumber`.\n    /// @param _blockNumber The block number when the totalSupply is queried\n    /// @return The total amount of tokens at `_blockNumber`\n    function totalSupplyAt(uint _blockNumber) public constant returns(uint) {\n\n        // These next few lines are used when the totalSupply of the token is\n        //  requested before a check point was ever created for this token, it\n        //  requires that the `parentToken.totalSupplyAt` be queried at the\n        //  genesis block for this token as that contains totalSupply of this\n        //  token at this block number.\n        if ((totalSupplyHistory.length == 0)\n            || (totalSupplyHistory[0].fromBlock > _blockNumber)) {\n            if (address(parentToken) != 0) {\n                return parentToken.totalSupplyAt(min(_blockNumber, parentSnapShotBlock));\n            } else {\n                return 0;\n            }\n\n        // This will return the expected totalSupply during normal situations\n        } else {\n            return getValueAt(totalSupplyHistory, _blockNumber);\n        }\n    }\n\n////////////////\n// Clone Token Method\n////////////////\n\n    /// @notice Creates a new clone token with the initial distribution being\n    ///  this token at `_snapshotBlock`\n    /// @param _cloneTokenName Name of the clone token\n    /// @param _cloneDecimalUnits Number of decimals of the smallest unit\n    /// @param _cloneTokenSymbol Symbol of the clone token\n    /// @param _snapshotBlock Block when the distribution of the parent token is\n    ///  copied to set the initial distribution of the new clone token;\n    ///  if the block is zero than the actual block, the current block is used\n    /// @param _transfersEnabled True if transfers are allowed in the clone\n    /// @return The address of the new MiniMeToken Contract\n    function createCloneToken(\n        string _cloneTokenName,\n        uint8 _cloneDecimalUnits,\n        string _cloneTokenSymbol,\n        uint _snapshotBlock,\n        bool _transfersEnabled\n        ) public returns(address) {\n        if (_snapshotBlock == 0) _snapshotBlock = block.number;\n        MiniMeToken cloneToken = tokenFactory.createCloneToken(\n            this,\n            _snapshotBlock,\n            _cloneTokenName,\n            _cloneDecimalUnits,\n            _cloneTokenSymbol,\n            _transfersEnabled\n            );\n\n        cloneToken.changeController(msg.sender);\n\n        // An event to make the token easy to find on the blockchain\n        NewCloneToken(address(cloneToken), _snapshotBlock);\n        return address(cloneToken);\n    }\n\n////////////////\n// Generate and destroy tokens\n////////////////\n\n    /// @notice Generates `_amount` tokens that are assigned to `_owner`\n    /// @param _owner The address that will be assigned the new tokens\n    /// @param _amount The quantity of tokens generated\n    /// @return True if the tokens are generated correctly\n    function generateTokens(address _owner, uint _amount\n    ) public onlyController returns (bool) {\n        uint curTotalSupply = totalSupply();\n        require(curTotalSupply + _amount >= curTotalSupply); // Check for overflow\n        uint previousBalanceTo = balanceOf(_owner);\n        require(previousBalanceTo + _amount >= previousBalanceTo); // Check for overflow\n        updateValueAtNow(totalSupplyHistory, curTotalSupply + _amount);\n        updateValueAtNow(balances[_owner], previousBalanceTo + _amount);\n        Transfer(0, _owner, _amount);\n        return true;\n    }\n\n\n    /// @notice Burns `_amount` tokens from `_owner`\n    /// @param _owner The address that will lose the tokens\n    /// @param _amount The quantity of tokens to burn\n    /// @return True if the tokens are burned correctly\n    function destroyTokens(address _owner, uint _amount\n    ) onlyController public returns (bool) {\n        uint curTotalSupply = totalSupply();\n        require(curTotalSupply >= _amount);\n        uint previousBalanceFrom = balanceOf(_owner);\n        require(previousBalanceFrom >= _amount);\n        updateValueAtNow(totalSupplyHistory, curTotalSupply - _amount);\n        updateValueAtNow(balances[_owner], previousBalanceFrom - _amount);\n        Transfer(_owner, 0, _amount);\n        return true;\n    }\n\n////////////////\n// Enable tokens transfers\n////////////////\n\n\n    /// @notice Enables token holders to transfer their tokens freely if true\n    /// @param _transfersEnabled True if transfers are allowed in the clone\n    function enableTransfers(bool _transfersEnabled) public onlyController {\n        transfersEnabled = _transfersEnabled;\n    }\n\n////////////////\n// Internal helper functions to query and set a value in a snapshot array\n////////////////\n\n    /// @dev `getValueAt` retrieves the number of tokens at a given block number\n    /// @param checkpoints The history of values being queried\n    /// @param _block The block number to retrieve the value at\n    /// @return The number of tokens being queried\n    function getValueAt(Checkpoint[] storage checkpoints, uint _block\n    ) constant internal returns (uint) {\n        if (checkpoints.length == 0) return 0;\n\n        // Shortcut for the actual value\n        if (_block >= checkpoints[checkpoints.length-1].fromBlock)\n            return checkpoints[checkpoints.length-1].value;\n        if (_block < checkpoints[0].fromBlock) return 0;\n\n        // Binary search of the value in the array\n        uint min = 0;\n        uint max = checkpoints.length-1;\n        while (max > min) {\n            uint mid = (max + min + 1)/ 2;\n            if (checkpoints[mid].fromBlock<=_block) {\n                min = mid;\n            } else {\n                max = mid-1;\n            }\n        }\n        return checkpoints[min].value;\n    }\n\n    /// @dev `updateValueAtNow` used to update the `balances` map and the\n    ///  `totalSupplyHistory`\n    /// @param checkpoints The history of data being updated\n    /// @param _value The new number of tokens\n    function updateValueAtNow(Checkpoint[] storage checkpoints, uint _value\n    ) internal  {\n        if ((checkpoints.length == 0)\n        || (checkpoints[checkpoints.length -1].fromBlock < block.number)) {\n               Checkpoint storage newCheckPoint = checkpoints[ checkpoints.length++ ];\n               newCheckPoint.fromBlock =  uint128(block.number);\n               newCheckPoint.value = uint128(_value);\n           } else {\n               Checkpoint storage oldCheckPoint = checkpoints[checkpoints.length-1];\n               oldCheckPoint.value = uint128(_value);\n           }\n    }\n\n    /// @dev Internal function to determine if an address is a contract\n    /// @param _addr The address being queried\n    /// @return True if `_addr` is a contract\n    function isContract(address _addr) constant internal returns(bool) {\n        uint size;\n        if (_addr == 0) return false;\n        assembly {\n            size := extcodesize(_addr)\n        }\n        return size>0;\n    }\n\n    /// @dev Helper function to return a min betwen the two uints\n    function min(uint a, uint b) pure internal returns (uint) {\n        return a < b ? a : b;\n    }\n\n    /// @notice The fallback function: If the contract's controller has not been\n    ///  set to 0, then the `proxyPayment` method is called which relays the\n    ///  ether and creates tokens as described in the token controller contract\n    function () public payable {\n        require(isContract(controller));\n        require(TokenController(controller).proxyPayment.value(msg.value)(msg.sender));\n    }\n\n//////////\n// Safety Methods\n//////////\n\n    /// @notice This method can be used by the controller to extract mistakenly\n    ///  sent tokens to this contract.\n    /// @param _token The address of the token contract that you want to recover\n    ///  set to 0 in case you want to extract ether.\n    function claimTokens(address _token) public onlyController {\n        if (_token == 0x0) {\n            controller.transfer(this.balance);\n            return;\n        }\n\n        MiniMeToken token = MiniMeToken(_token);\n        uint balance = token.balanceOf(this);\n        token.transfer(controller, balance);\n        ClaimedTokens(_token, controller, balance);\n    }\n\n////////////////\n// Events\n////////////////\n    event ClaimedTokens(address indexed _token, address indexed _controller, uint _amount);\n    event Transfer(address indexed _from, address indexed _to, uint256 _amount);\n    event NewCloneToken(address indexed _cloneToken, uint _snapshotBlock);\n    event Approval(\n        address indexed _owner,\n        address indexed _spender,\n        uint256 _amount\n        );\n\n}\n\n\n////////////////\n// MiniMeTokenFactory\n////////////////\n\n/// @dev This contract is used to generate clone contracts from a contract.\n///  In solidity this is the way to create a contract from a contract of the\n///  same class\ncontract MiniMeTokenFactory {\n\n    /// @notice Update the DApp by creating a new token with new functionalities\n    ///  the msg.sender becomes the controller of this clone token\n    /// @param _parentToken Address of the token being cloned\n    /// @param _snapshotBlock Block of the parent token that will\n    ///  determine the initial distribution of the clone token\n    /// @param _tokenName Name of the new token\n    /// @param _decimalUnits Number of decimals of the new token\n    /// @param _tokenSymbol Token Symbol for the new token\n    /// @param _transfersEnabled If true, tokens will be able to be transferred\n    /// @return The address of the new token contract\n    function createCloneToken(\n        address _parentToken,\n        uint _snapshotBlock,\n        string _tokenName,\n        uint8 _decimalUnits,\n        string _tokenSymbol,\n        bool _transfersEnabled\n    ) public returns (MiniMeToken) {\n        MiniMeToken newToken = new MiniMeToken(\n            this,\n            _parentToken,\n            _snapshotBlock,\n            _tokenName,\n            _decimalUnits,\n            _tokenSymbol,\n            _transfersEnabled\n            );\n\n        newToken.changeController(msg.sender);\n        return newToken;\n    }\n}",
  "sourcePath": "/Users/nieldlr/Coding/Projects/ethereum/patronage/contracts/minime/MiniMeToken.sol",
  "schemaVersion": "1.0.0",
  "updatedAt": "2017-10-25T11:18:31.226Z",
  "contract_name": "MiniMeTokenFactory",
  "unlinked_binary": "0x6060604052341561000f57600080fd5b5b611e758061001f6000396000f300606060405263ffffffff7c01000000000000000000000000000000000000000000000000000000006000350416635b7b72c1811461003d575b600080fd5b341561004857600080fd5b6101016004803573ffffffffffffffffffffffffffffffffffffffff169060248035919060649060443590810190830135806020601f8201819004810201604051908101604052818152929190602084018383808284378201915050505050509190803560ff1690602001909190803590602001908201803590602001908080601f01602080910402602001604051908101604052818152929190602084018383808284375094965050505091351515915061012a9050565b60405173ffffffffffffffffffffffffffffffffffffffff909116815260200160405180910390f35b6000803088888888888861013c610310565b73ffffffffffffffffffffffffffffffffffffffff8089168252871660208201526040810186905260ff8416608082015281151560c082015260e0606082018181529060a0830190830187818151815260200191508051906020019080838360005b838110156101b75780820151818401525b60200161019e565b50505050905090810190601f1680156101e45780820380516001836020036101000a031916815260200191505b50838103825285818151815260200191508051906020019080838360005b8381101561021b5780820151818401525b602001610202565b50505050905090810190601f1680156102485780820380516001836020036101000a031916815260200191505b509950505050505050505050604051809103906000f080151561026a57600080fd5b90508073ffffffffffffffffffffffffffffffffffffffff16633cebb823336040517c010000000000000000000000000000000000000000000000000000000063ffffffff841602815273ffffffffffffffffffffffffffffffffffffffff9091166004820152602401600060405180830381600087803b15156102ed57600080fd5b6102c65a03f115156102fe57600080fd5b5050508091505b509695505050505050565b604051611b2980610321833901905600606060405260408051908101604052600781527f4d4d545f302e3200000000000000000000000000000000000000000000000000602082015260049080516200004d9291602001906200015c565b5034156200005a57600080fd5b60405162001b2938038062001b2983398101604052808051919060200180519190602001805191906020018051820191906020018051919060200180518201919060200180519150505b5b60008054600160a060020a03191633600160a060020a03161790555b600b805461010060a860020a031916610100600160a060020a038a16021790556001848051620000f69291602001906200015c565b506002805460ff191660ff851617905560038280516200011b9291602001906200015c565b5060058054600160a060020a031916600160a060020a0388161790556006859055600b805460ff1916821515179055436007555b5050505050505062000206565b828054600181600116156101000203166002900490600052602060002090601f016020900481019282601f106200019f57805160ff1916838001178555620001cf565b82800160010185558215620001cf579182015b82811115620001cf578251825591602001919060010190620001b2565b5b50620001de929150620001e2565b5090565b6200020391905b80821115620001de5760008155600101620001e9565b5090565b90565b61191380620002166000396000f3006060604052361561012d5763ffffffff60e060020a60003504166306fdde038114610131578063095ea7b3146101bc57806317634514146101f257806318160ddd1461021757806323b872dd1461023c578063313ce567146102785780633cebb823146102a15780634ee2cd7e146102c257806354fd4d50146102f65780636638c0871461038157806370a082311461044557806380a5400114610476578063827f32c0146104a557806395d89b41146104db578063981b24d014610566578063a9059cbb1461058e578063bef97c87146105c4578063c5bcc4f1146105eb578063cae9ca5114610610578063d3ce77fe14610689578063dd62ed3e146106bf578063df8de3e7146106f6578063e77772fe14610717578063f41e60c514610746578063f77c479114610760575b5b5b005b341561013c57600080fd5b61014461078f565b60405160208082528190810183818151815260200191508051906020019080838360005b838110156101815780820151818401525b602001610168565b50505050905090810190601f1680156101ae5780820380516001836020036101000a031916815260200191505b509250505060405180910390f35b34156101c757600080fd5b6101de600160a060020a036004351660243561082d565b604051901515815260200160405180910390f35b34156101fd57600080fd5b6102056108e6565b60405190815260200160405180910390f35b341561022257600080fd5b6102056108ec565b60405190815260200160405180910390f35b341561024757600080fd5b6101de600160a060020a03600435811690602435166044356108fd565b604051901515815260200160405180910390f35b341561028357600080fd5b61028b61099f565b60405160ff909116815260200160405180910390f35b34156102ac57600080fd5b61012d600160a060020a03600435166109a8565b005b34156102cd57600080fd5b610205600160a060020a03600435166024356109f0565b60405190815260200160405180910390f35b341561030157600080fd5b610144610b36565b60405160208082528190810183818151815260200191508051906020019080838360005b838110156101815780820151818401525b602001610168565b50505050905090810190601f1680156101ae5780820380516001836020036101000a031916815260200191505b509250505060405180910390f35b341561038c57600080fd5b61042960046024813581810190830135806020601f8201819004810201604051908101604052818152929190602084018383808284378201915050505050509190803560ff1690602001909190803590602001908201803590602001908080601f016020809104026020016040519081016040528181529291906020840183838082843750949650508435946020013515159350610bd492505050565b604051600160a060020a03909116815260200160405180910390f35b341561045057600080fd5b610205600160a060020a0360043516610e04565b60405190815260200160405180910390f35b341561048157600080fd5b610429610e18565b604051600160a060020a03909116815260200160405180910390f35b34156104b057600080fd5b6101de600160a060020a0360043516602435610e27565b604051901515815260200160405180910390f35b34156104e657600080fd5b610144610efa565b60405160208082528190810183818151815260200191508051906020019080838360005b838110156101815780820151818401525b602001610168565b50505050905090810190601f1680156101ae5780820380516001836020036101000a031916815260200191505b509250505060405180910390f35b341561057157600080fd5b610205600435610f98565b60405190815260200160405180910390f35b341561059957600080fd5b6101de600160a060020a0360043516602435611090565b604051901515815260200160405180910390f35b34156105cf57600080fd5b6101de6110b8565b604051901515815260200160405180910390f35b34156105f657600080fd5b6102056110c1565b60405190815260200160405180910390f35b341561061b57600080fd5b6101de60048035600160a060020a03169060248035919060649060443590810190830135806020601f820181900481020160405190810160405281815292919060208401838380828437509496506110c795505050505050565b604051901515815260200160405180910390f35b341561069457600080fd5b6101de600160a060020a03600435166024356111e5565b604051901515815260200160405180910390f35b34156106ca57600080fd5b610205600160a060020a03600435811690602435166112b2565b60405190815260200160405180910390f35b341561070157600080fd5b61012d600160a060020a03600435166112df565b005b341561072257600080fd5b61042961148c565b604051600160a060020a03909116815260200160405180910390f35b341561075157600080fd5b61012d60043515156114a0565b005b341561076b57600080fd5b6104296114ce565b604051600160a060020a03909116815260200160405180910390f35b60018054600181600116156101000203166002900480601f0160208091040260200160405190810160405280929190818152602001828054600181600116156101000203166002900480156108255780601f106107fa57610100808354040283529160200191610825565b820191906000526020600020905b81548152906001019060200180831161080857829003601f168201915b505050505081565b600b5460009060ff16151561084157600080fd5b8115806108715750600160a060020a03338116600090815260096020908152604080832093871683529290522054155b151561087c57600080fd5b600160a060020a03338116600081815260096020908152604080832094881680845294909152908190208590557f8c5be1e5ebec7d5bd14f71427d1e84f3dd0314c0f7b2291e5b200ac8c7c3b9259085905190815260200160405180910390a35060015b92915050565b60075481565b60006108f743610f98565b90505b90565b6000805433600160a060020a0390811691161461098a57600b5460ff16151561092557600080fd5b600160a060020a03808516600090815260096020908152604080832033909416835292905220548290101561095c57506000610998565b600160a060020a03808516600090815260096020908152604080832033909416835292905220805483900390555b6109958484846114dd565b90505b9392505050565b60025460ff1681565b60005433600160a060020a039081169116146109c357600080fd5b6000805473ffffffffffffffffffffffffffffffffffffffff1916600160a060020a0383161790555b5b50565b600160a060020a0382166000908152600860205260408120541580610a505750600160a060020a038316600090815260086020526040812080548492908110610a3557fe5b906000526020600020900160005b50546001608060020a0316115b15610b0657600554600160a060020a031615610af957600554600654600160a060020a0390911690634ee2cd7e908590610a8b90869061160b565b60006040516020015260405160e060020a63ffffffff8516028152600160a060020a0390921660048301526024820152604401602060405180830381600087803b1515610ad757600080fd5b6102c65a03f11515610ae857600080fd5b5050506040518051905090506108e0565b5060006108e0565b6108e0565b600160a060020a0383166000908152600860205260409020610b289083611625565b90506108e0565b5b92915050565b60048054600181600116156101000203166002900480601f0160208091040260200160405190810160405280929190818152602001828054600181600116156101000203166002900480156108255780601f106107fa57610100808354040283529160200191610825565b820191906000526020600020905b81548152906001019060200180831161080857829003601f168201915b505050505081565b600080831515610be2574393505b600b546101009004600160a060020a0316635b7b72c130868a8a8a8960006040516020015260405160e060020a63ffffffff8916028152600160a060020a038716600482019081526024820187905260ff8516606483015282151560a483015260c0604483019081529091608481019060c40187818151815260200191508051906020019080838360005b83811015610c865780820151818401525b602001610c6d565b50505050905090810190601f168015610cb35780820380516001836020036101000a031916815260200191505b50838103825285818151815260200191508051906020019080838360005b83811015610cea5780820151818401525b602001610cd1565b50505050905090810190601f168015610d175780820380516001836020036101000a031916815260200191505b5098505050505050505050602060405180830381600087803b1515610d3b57600080fd5b6102c65a03f11515610d4c57600080fd5b5050506040518051915050600160a060020a038116633cebb8233360405160e060020a63ffffffff8416028152600160a060020a039091166004820152602401600060405180830381600087803b1515610da557600080fd5b6102c65a03f11515610db657600080fd5b50505080600160a060020a03167f086c875b377f900b07ce03575813022f05dd10ed7640b5282cf6d3c3fc352ade8560405190815260200160405180910390a28091505b5095945050505050565b6000610e1082436109f0565b90505b919050565b600554600160a060020a031681565b600080548190819033600160a060020a03908116911614610e4757600080fd5b610e4f6108ec565b915083820182901015610e6157600080fd5b610e6a85610e04565b905083810181901015610e7c57600080fd5b610e89600a858401611799565b600160a060020a0385166000908152600860205260409020610ead90828601611799565b84600160a060020a031660007fddf252ad1be2c89b69c2b068fc378daa952ba7f163c4a11628f55a4df523b3ef8660405190815260200160405180910390a3600192505b5b505092915050565b60038054600181600116156101000203166002900480601f0160208091040260200160405190810160405280929190818152602001828054600181600116156101000203166002900480156108255780601f106107fa57610100808354040283529160200191610825565b820191906000526020600020905b81548152906001019060200180831161080857829003601f168201915b505050505081565b600a546000901580610fd1575081600a6000815481101515610fb657fe5b906000526020600020900160005b50546001608060020a0316115b1561107857600554600160a060020a03161561106b57600554600654600160a060020a039091169063981b24d09061100a90859061160b565b60006040516020015260405160e060020a63ffffffff84160281526004810191909152602401602060405180830381600087803b151561104957600080fd5b6102c65a03f1151561105a57600080fd5b505050604051805190509050610e13565b506000610e13565b610e13565b611083600a83611625565b9050610e13565b5b919050565b600b5460009060ff1615156110a457600080fd5b6110af3384846114dd565b90505b92915050565b600b5460ff1681565b60065481565b60006110d3848461082d565b15156110de57600080fd5b83600160a060020a0316638f4ffcb1338530866040518563ffffffff1660e060020a0281526004018085600160a060020a0316600160a060020a0316815260200184815260200183600160a060020a0316600160a060020a0316815260200180602001828103825283818151815260200191508051906020019080838360005b838110156111775780820151818401525b60200161115e565b50505050905090810190601f1680156111a45780820380516001836020036101000a031916815260200191505b5095505050505050600060405180830381600087803b15156111c557600080fd5b6102c65a03f115156111d657600080fd5b505050600190505b9392505050565b600080548190819033600160a060020a0390811691161461120557600080fd5b61120d6108ec565b91508382101561121c57600080fd5b61122585610e04565b90508381101561123457600080fd5b611241600a858403611799565b600160a060020a038516600090815260086020526040902061126590858303611799565b600085600160a060020a03167fddf252ad1be2c89b69c2b068fc378daa952ba7f163c4a11628f55a4df523b3ef8660405190815260200160405180910390a3600192505b5b505092915050565b600160a060020a038083166000908152600960209081526040808320938516835292905220545b92915050565b60008054819033600160a060020a039081169116146112fd57600080fd5b600160a060020a038316151561134b57600054600160a060020a039081169030163180156108fc0290604051600060405180830381858888f19350505050151561134657600080fd5b611486565b82915081600160a060020a03166370a082313060006040516020015260405160e060020a63ffffffff8416028152600160a060020a039091166004820152602401602060405180830381600087803b15156113a557600080fd5b6102c65a03f115156113b657600080fd5b505050604051805160008054919350600160a060020a03808616935063a9059cbb92169084906040516020015260405160e060020a63ffffffff8516028152600160a060020a0390921660048301526024820152604401602060405180830381600087803b151561142657600080fd5b6102c65a03f1151561143757600080fd5b50505060405180515050600054600160a060020a039081169084167ff931edb47c50b4b4104c187b5814a9aef5f709e17e2ecf9617e860cacade929c8360405190815260200160405180910390a35b5b505050565b600b546101009004600160a060020a031681565b60005433600160a060020a039081169116146114bb57600080fd5b600b805460ff19168215151790555b5b50565b600054600160a060020a031681565b600080808315156114f15760019250611602565b60065443901061150057600080fd5b600160a060020a0385161580159061152a575030600160a060020a031685600160a060020a031614155b151561153557600080fd5b61153f86436109f0565b9150838210156115525760009250611602565b600160a060020a038616600090815260086020526040902061157690858403611799565b61158085436109f0565b90508381018190101561159257600080fd5b600160a060020a03851660009081526008602052604090206115b690828601611799565b84600160a060020a031686600160a060020a03167fddf252ad1be2c89b69c2b068fc378daa952ba7f163c4a11628f55a4df523b3ef8660405190815260200160405180910390a3600192505b50509392505050565b600081831061161a57816110af565b825b90505b92915050565b6000806000808580549050600014156116415760009350611790565b85548690600019810190811061165357fe5b906000526020600020900160005b50546001608060020a031685106116b85785548690600019810190811061168457fe5b906000526020600020900160005b505470010000000000000000000000000000000090046001608060020a03169350611790565b8560008154811015156116c757fe5b906000526020600020900160005b50546001608060020a03168510156116f05760009350611790565b8554600093506000190191505b828211156117525760026001838501015b04905084868281548110151561172057fe5b906000526020600020900160005b50546001608060020a0316116117465780925061174d565b6001810391505b6116fd565b858381548110151561176057fe5b906000526020600020900160005b505470010000000000000000000000000000000090046001608060020a031693505b50505092915050565b8154600090819015806117d6575083544390859060001981019081106117bb57fe5b906000526020600020900160005b50546001608060020a0316105b1561184c57835484906117ec826001830161189c565b815481106117f657fe5b906000526020600020900160005b5080546001608060020a03858116700100000000000000000000000000000000024382166fffffffffffffffffffffffffffffffff1990931692909217161781559150611895565b83548490600019810190811061185e57fe5b906000526020600020900160005b5080546001608060020a0380861670010000000000000000000000000000000002911617815590505b5b50505050565b815481835581811511611486576000838152602090206114869181019083016118c6565b5b505050565b6108fa91905b808211156118e057600081556001016118cc565b5090565b905600a165627a7a723058208ef941e0bb175213784d6553e8f1f3d1dc1846f5bb89ca86f342dfd688c343770029a165627a7a7230582024f1a5920e4554110881584c0d377664cbce483f0c468821a2a6e93594d1c54b0029",
  "schema_version": "0.0.5",
  "updated_at": 1517035430528
}