{
  "contractName": "StakeTree_MVP",
  "abi": [
    {
      "constant": false,
      "inputs": [
        {
          "name": "startAmount",
          "type": "uint256"
        }
      ],
      "name": "calculateWithdrawalAmount",
      "outputs": [
        {
          "name": "",
          "type": "uint256"
        }
      ],
      "payable": false,
      "type": "function"
    },
    {
      "constant": true,
      "inputs": [],
      "name": "getBalance",
      "outputs": [
        {
          "name": "balance",
          "type": "uint256"
        }
      ],
      "payable": false,
      "type": "function"
    },
    {
      "constant": true,
      "inputs": [],
      "name": "lastWithdrawal",
      "outputs": [
        {
          "name": "",
          "type": "uint256"
        }
      ],
      "payable": false,
      "type": "function"
    },
    {
      "constant": true,
      "inputs": [
        {
          "name": "funder",
          "type": "address"
        }
      ],
      "name": "getWithdrawalCounterForFunder",
      "outputs": [
        {
          "name": "",
          "type": "uint256"
        }
      ],
      "payable": false,
      "type": "function"
    },
    {
      "constant": true,
      "inputs": [],
      "name": "decimalMultiplier",
      "outputs": [
        {
          "name": "",
          "type": "uint256"
        }
      ],
      "payable": false,
      "type": "function"
    },
    {
      "constant": true,
      "inputs": [],
      "name": "getWithdrawalCounter",
      "outputs": [
        {
          "name": "",
          "type": "uint256"
        }
      ],
      "payable": false,
      "type": "function"
    },
    {
      "constant": true,
      "inputs": [],
      "name": "beneficiary",
      "outputs": [
        {
          "name": "",
          "type": "address"
        }
      ],
      "payable": false,
      "type": "function"
    },
    {
      "constant": true,
      "inputs": [],
      "name": "getBeneficiary",
      "outputs": [
        {
          "name": "",
          "type": "address"
        }
      ],
      "payable": false,
      "type": "function"
    },
    {
      "constant": true,
      "inputs": [],
      "name": "getCurrentTotalFunders",
      "outputs": [
        {
          "name": "",
          "type": "uint256"
        }
      ],
      "payable": false,
      "type": "function"
    },
    {
      "constant": true,
      "inputs": [
        {
          "name": "funder",
          "type": "address"
        }
      ],
      "name": "balanceOf",
      "outputs": [
        {
          "name": "",
          "type": "uint256"
        }
      ],
      "payable": false,
      "type": "function"
    },
    {
      "constant": false,
      "inputs": [],
      "name": "withdrawToBeneficiary",
      "outputs": [],
      "payable": false,
      "type": "function"
    },
    {
      "constant": false,
      "inputs": [
        {
          "name": "timestamp",
          "type": "uint256"
        }
      ],
      "name": "setInitialNextWithdrawal",
      "outputs": [],
      "payable": false,
      "type": "function"
    },
    {
      "constant": true,
      "inputs": [],
      "name": "minimumFundingAmount",
      "outputs": [
        {
          "name": "",
          "type": "uint256"
        }
      ],
      "payable": false,
      "type": "function"
    },
    {
      "constant": true,
      "inputs": [
        {
          "name": "funder",
          "type": "address"
        }
      ],
      "name": "getRefundAmountForFunder",
      "outputs": [
        {
          "name": "",
          "type": "uint256"
        }
      ],
      "payable": false,
      "type": "function"
    },
    {
      "constant": true,
      "inputs": [
        {
          "name": "",
          "type": "address"
        }
      ],
      "name": "funderCounter",
      "outputs": [
        {
          "name": "",
          "type": "uint256"
        }
      ],
      "payable": false,
      "type": "function"
    },
    {
      "constant": true,
      "inputs": [
        {
          "name": "funder",
          "type": "address"
        }
      ],
      "name": "getHowManyWithdrawalsForFunder",
      "outputs": [
        {
          "name": "",
          "type": "uint256"
        }
      ],
      "payable": false,
      "type": "function"
    },
    {
      "constant": false,
      "inputs": [
        {
          "name": "beneficiaryAddress",
          "type": "address"
        }
      ],
      "name": "setInitialBeneficiary",
      "outputs": [],
      "payable": false,
      "type": "function"
    },
    {
      "constant": true,
      "inputs": [],
      "name": "nextWithdrawal",
      "outputs": [
        {
          "name": "",
          "type": "uint256"
        }
      ],
      "payable": false,
      "type": "function"
    },
    {
      "constant": true,
      "inputs": [],
      "name": "withdrawalPeriod",
      "outputs": [
        {
          "name": "",
          "type": "uint256"
        }
      ],
      "payable": false,
      "type": "function"
    },
    {
      "constant": false,
      "inputs": [
        {
          "name": "funder",
          "type": "address"
        }
      ],
      "name": "refundByFunder",
      "outputs": [],
      "payable": false,
      "type": "function"
    },
    {
      "constant": false,
      "inputs": [
        {
          "name": "period",
          "type": "uint256"
        }
      ],
      "name": "changeWithdrawalPeriod",
      "outputs": [],
      "payable": false,
      "type": "function"
    },
    {
      "constant": true,
      "inputs": [
        {
          "name": "",
          "type": "address"
        }
      ],
      "name": "funderBalances",
      "outputs": [
        {
          "name": "",
          "type": "uint256"
        }
      ],
      "payable": false,
      "type": "function"
    },
    {
      "inputs": [
        {
          "name": "beneficiaryAddress",
          "type": "address"
        }
      ],
      "payable": false,
      "type": "constructor"
    },
    {
      "payable": true,
      "type": "fallback"
    },
    {
      "anonymous": false,
      "inputs": [
        {
          "indexed": false,
          "name": "funderAddress",
          "type": "address"
        },
        {
          "indexed": false,
          "name": "amount",
          "type": "uint256"
        }
      ],
      "name": "LogFunding",
      "type": "event"
    },
    {
      "anonymous": false,
      "inputs": [
        {
          "indexed": false,
          "name": "amount",
          "type": "uint256"
        },
        {
          "indexed": false,
          "name": "source",
          "type": "string"
        }
      ],
      "name": "LogAmount",
      "type": "event"
    }
  ],
  "bytecode": "0x606060405260006002819055600381905560016005556104b060065560078190556008556009805460ff19169055633b9aca00600a55341561004057600080fd5b5b610886806100506000396000f300606060405236156101255763ffffffff7c01000000000000000000000000000000000000000000000000000000006000350416630e1a039981146101ca57806312065fe0146101f25780631dd300ce14610217578063221842361461023c5780633082538f1461026d57806337ea1f631461029257806338af3eed146102b7578063565a2e2c146102e65780635896521b1461031557806370a082311461033a5780637273c3331461036b578063769157be14610380578063783c8db01461039857806383c28ddc146103bd5780638ae4d5a9146103ee5780639461a8e21461041f578063a4c5eb2014610450578063b7e9f19314610471578063bca7093d14610496578063d5003acc146104bb578063ea50236c146104dc578063fee69cb9146104f4575b5b60095460ff16151560011461013a57600080fd5b6005543411156101c55761014d33610525565b151561019057600280546001908101909155600354600160a060020a033316600090815260209283526040808220929092559182905290208054340190556101c5565b3461019a33610544565b600160a060020a03331660009081526020818152604080832094909301909355600354600190935220555b5b5b5b005b34156101d557600080fd5b6101e06004356105ae565b60405190815260200160405180910390f35b34156101fd57600080fd5b6101e06105de565b60405190815260200160405180910390f35b341561022257600080fd5b6101e06105ed565b60405190815260200160405180910390f35b341561024757600080fd5b6101e0600160a060020a03600435166105f3565b60405190815260200160405180910390f35b341561027857600080fd5b6101e0610612565b60405190815260200160405180910390f35b341561029d57600080fd5b6101e0610618565b60405190815260200160405180910390f35b34156102c257600080fd5b6102ca61061f565b604051600160a060020a03909116815260200160405180910390f35b34156102f157600080fd5b6102ca61062e565b604051600160a060020a03909116815260200160405180910390f35b341561032057600080fd5b6101e061063e565b60405190815260200160405180910390f35b341561034557600080fd5b6101e0600160a060020a0360043516610525565b60405190815260200160405180910390f35b341561037657600080fd5b6101c5610645565b005b341561038b57600080fd5b6101c56004356106cb565b005b34156103a357600080fd5b6101e06106e9565b60405190815260200160405180910390f35b34156103c857600080fd5b6101e0600160a060020a0360043516610544565b60405190815260200160405180910390f35b34156103f957600080fd5b6101e0600160a060020a03600435166106ef565b60405190815260200160405180910390f35b341561042a57600080fd5b6101e0600160a060020a0360043516610701565b60405190815260200160405180910390f35b341561045b57600080fd5b6101c5600160a060020a0360043516610724565b005b341561047c57600080fd5b6101e0610767565b60405190815260200160405180910390f35b34156104a157600080fd5b6101e061076d565b60405190815260200160405180910390f35b34156104c657600080fd5b6101c5600160a060020a0360043516610773565b005b34156104e757600080fd5b6101c5600435610819565b005b34156104ff57600080fd5b6101e0600160a060020a0360043516610833565b60405190815260200160405180910390f35b600160a060020a0381166000908152602081905260409020545b919050565b600160a060020a03811660009081526020819052604081205481808061056986610701565b9250600a5484029150600090505b82811015610594576064825b04600a02820391505b600101610577565b600a54828115156105a157fe5b0494505b50505050919050565b600a54600090820281806064835b04600a029150600a54828115156105cf57fe5b0490508093505b505050919050565b600160a060020a033016315b90565b60075481565b600160a060020a0381166000908152600160205260409020545b919050565b600a5481565b6003545b90565b600454600160a060020a031681565b600454600160a060020a03165b90565b6002545b90565b60095460009060ff16151560011461065c57600080fd5b60085442101561066b57600080fd5b61067e30600160a060020a0316316105ae565b600380546001019055905061069242610845565b600454600160a060020a031681156108fc0282604051600060405180830381858888f1935050505015156106c557600080fd5b5b5b5b50565b600781905560065481016008556009805460ff191660011790555b50565b60055481565b60016020526000908152604090205481565b600160a060020a038116600090815260016020526040902054600354035b919050565b600454600160a060020a03161561073a57600080fd5b6004805473ffffffffffffffffffffffffffffffffffffffff1916600160a060020a0383161790555b5b50565b60085481565b60065481565b60095460009060ff16151560011461078a57600080fd5b8180600160a060020a031633600160a060020a03161415156107ab57600080fd5b6107b483610544565b60028054600019019055600160a060020a0384166000818152602081815260408083208390556001909152808220919091559193509083156108fc0290849051600060405180830381858888f19350505050151561081157600080fd5b5b5b505b5050565b60095460ff161561082957600080fd5b60068190555b5b50565b60006020819052908152604090205481565b60078190556006546008805490910190555b505600a165627a7a72305820f752c91a54155c38d7a741b2be8758db77c3c07e208179453343465edf5b04c20029",
  "source": "pragma solidity ^0.4.11;\n\ncontract StakeTree_MVP {\n  mapping(address => uint256) public funderBalances;\n  mapping(address => uint256) public funderCounter;\n\n  uint totalCurrentFunders = 0;\n  uint withdrawalCounter = 0;\n  address public beneficiary;\n  uint public minimumFundingAmount = 1 wei; // Prevent spam & support meaningful contributions for now\n  uint public withdrawalPeriod = 20 minutes;\n  uint public lastWithdrawal = 0;\n  uint public nextWithdrawal = 0;\n  bool setupComplete = false;\n\n  uint public decimalMultiplier = 1000000000;\n\n  event LogFunding(address funderAddress, uint amount);\n  event LogAmount(uint amount, string source);\n\n  // Modifiers\n  modifier onlyByFunder(address funder) {\n    require(msg.sender == funder);\n    _;\n  }\n\n  modifier onlyByBeneficiary() {\n    require(msg.sender == beneficiary);\n    _;\n  }\n\n  modifier onlyAfterNextWithdrawalDate() {\n    require(now >= nextWithdrawal);\n    _;\n  }\n\n  modifier onlyIfBeneficiaryIsNotSet() {\n    require(beneficiary == address(0));\n    _;\n  }\n\n  modifier onlyBeforeSetup() {\n    require(setupComplete == false);\n    _;\n  }\n\n  modifier onlyAfterSetup() {\n    require(setupComplete == true);\n    _;\n  }\n\n\tfunction () payable onlyAfterSetup {\n    if(msg.value > minimumFundingAmount){\n      // Only increase total funders when they are a new funder\n      if(balanceOf(msg.sender) == 0) {\n        totalCurrentFunders += 1;\n        // Set the withdrawal counter. Ie at which withdrawal the funder \"entered\" the patronage contract\n        funderCounter[msg.sender] = withdrawalCounter;\n        funderBalances[msg.sender] += msg.value;\n      }\n      else {\n        // If the funder is already in the pool let's update things while we're at it\n        funderBalances[msg.sender] = getRefundAmountForFunder(msg.sender) + msg.value;\n        // Reset withdrawal counter\n        funderCounter[msg.sender] = withdrawalCounter;\n      }\n    }\n  }\n\n  // Setup functions\n  function setInitialBeneficiary(address beneficiaryAddress) onlyIfBeneficiaryIsNotSet {\n    beneficiary = beneficiaryAddress;\n  }\n  function setInitialNextWithdrawal(uint timestamp) {\n    lastWithdrawal = timestamp; // For tracking purposes\n    nextWithdrawal = lastWithdrawal + withdrawalPeriod; // Fixed period increase\n    setupComplete = true;\n  }\n\n  // Pure functions\n  function calculateWithdrawalAmount(uint startAmount) returns (uint){\n    uint bigNumber = startAmount*decimalMultiplier;\n    uint bigWithdrawalAmount = bigNumber/100*10;\n    uint withdrawalAmount = bigWithdrawalAmount/decimalMultiplier;\n    return withdrawalAmount;\n  }\n\n  // Getter functions\n  function getBeneficiary() constant returns (address) {\n    return beneficiary;\n  }\n\n  function getCurrentTotalFunders() constant returns (uint) {\n    return totalCurrentFunders;\n  }\n\n  function getWithdrawalCounter() constant returns (uint) {\n    return withdrawalCounter;\n  }\n\n  function getWithdrawalCounterForFunder(address funder) constant returns (uint) {\n    return funderCounter[funder];\n  }\n\n  function getRefundAmountForFunder(address funder) constant returns (uint) {\n    uint amount = funderBalances[funder];\n    uint withdrawalTimes = getHowManyWithdrawalsForFunder(funder);\n    uint bigNumberAmount = amount*decimalMultiplier;\n    \n    for(uint i=0; i<withdrawalTimes; i++) {\n      bigNumberAmount = bigNumberAmount-(bigNumberAmount/100*10);\n    }\n\n    return bigNumberAmount/decimalMultiplier;\n  }\n\n  function getBalance() constant returns (uint256 balance) {\n    balance = this.balance;\n  }\n\n  function balanceOf(address funder) constant returns (uint256) {\n    return funderBalances[funder];\n  }\n\n  function getHowManyWithdrawalsForFunder(address funder) constant returns (uint) {\n    return withdrawalCounter - funderCounter[funder];\n  }\n\n  // State changing functions\n  function setNextWithdrawalTime(uint timestamp) private {\n    lastWithdrawal = timestamp; // For tracking purposes\n    nextWithdrawal = nextWithdrawal + withdrawalPeriod; // Fixed period increase\n  }\n\n  // TODO: Set minimum withdrawal amount\n  // TODO: Changed to check-effects-interactions. Question: what if the transfer fails?\n  function withdrawToBeneficiary() onlyAfterSetup onlyAfterNextWithdrawalDate {\n    uint amount = calculateWithdrawalAmount(this.balance);\n\n    // Keep track of how many withdrawals have taken place\n    withdrawalCounter += 1;\n\n    setNextWithdrawalTime(now);\n\n    beneficiary.transfer(amount); \n  }\n\n  // Patron refunding from funder\n  // Only funders can refund their own funding\n  // Can only be sent back to the same address it was funded with\n  // TODO: set minimum withdrawal amount?\n  // TODO: Changed to check-effects-interactions. Question: what if the transfer fails?\n  function refundByFunder(address funder) onlyAfterSetup onlyByFunder(funder) {\n    // Check\n    uint amount = getRefundAmountForFunder(funder);\n\n    // Effects\n    totalCurrentFunders -= 1;\n    delete funderBalances[funder];\n    delete funderCounter[funder];\n\n    // Interaction\n    funder.transfer(amount);\n  }\n\n  // Patron refund from beneficiary\n  // This is for cases where the funder lost access to their original account\n  // They can only refund by contacting the beneficiary.\n  // TODO: Implement this properly\n  // function refundByBeneficiary(address funder, address newAddress) onlyByBeneficiary() {\n  //   uint amount = funderBalances[funder];\n  //   newAddress.call.gas(50000).value(amount)();\n  //   funderBalances[funder] -= amount;\n  // }\n\n  // Testing functions\n  function changeWithdrawalPeriod(uint period) onlyBeforeSetup {\n    withdrawalPeriod = period;\n  }\n}",
  "sourcePath": "/Users/nieldlr/Coding/Projects/ethereum/patronage/contracts/StakeTree_MVP.sol",
  "schemaVersion": "1.0.0",
  "updatedAt": "2017-09-14T14:46:04.685Z",
  "contract_name": "StakeTree_MVP",
  "unlinked_binary": "0x606060405260006002819055600381905560016005556104b060065560078190556008556009805460ff19169055633b9aca00600a55341561004057600080fd5b60405160208061090a833981016040528080519150505b60048054600160a060020a031916600160a060020a0383161790555b505b610886806100846000396000f300606060405236156101255763ffffffff7c01000000000000000000000000000000000000000000000000000000006000350416630e1a039981146101ca57806312065fe0146101f25780631dd300ce14610217578063221842361461023c5780633082538f1461026d57806337ea1f631461029257806338af3eed146102b7578063565a2e2c146102e65780635896521b1461031557806370a082311461033a5780637273c3331461036b578063769157be14610380578063783c8db01461039857806383c28ddc146103bd5780638ae4d5a9146103ee5780639461a8e21461041f578063a4c5eb2014610450578063b7e9f19314610471578063bca7093d14610496578063d5003acc146104bb578063ea50236c146104dc578063fee69cb9146104f4575b5b60095460ff16151560011461013a57600080fd5b6005543411156101c55761014d33610525565b151561019057600280546001908101909155600354600160a060020a033316600090815260209283526040808220929092559182905290208054340190556101c5565b3461019a33610544565b600160a060020a03331660009081526020818152604080832094909301909355600354600190935220555b5b5b5b005b34156101d557600080fd5b6101e06004356105ae565b60405190815260200160405180910390f35b34156101fd57600080fd5b6101e06105de565b60405190815260200160405180910390f35b341561022257600080fd5b6101e06105ed565b60405190815260200160405180910390f35b341561024757600080fd5b6101e0600160a060020a03600435166105f3565b60405190815260200160405180910390f35b341561027857600080fd5b6101e0610612565b60405190815260200160405180910390f35b341561029d57600080fd5b6101e0610618565b60405190815260200160405180910390f35b34156102c257600080fd5b6102ca61061f565b604051600160a060020a03909116815260200160405180910390f35b34156102f157600080fd5b6102ca61062e565b604051600160a060020a03909116815260200160405180910390f35b341561032057600080fd5b6101e061063e565b60405190815260200160405180910390f35b341561034557600080fd5b6101e0600160a060020a0360043516610525565b60405190815260200160405180910390f35b341561037657600080fd5b6101c5610645565b005b341561038b57600080fd5b6101c56004356106cb565b005b34156103a357600080fd5b6101e06106e9565b60405190815260200160405180910390f35b34156103c857600080fd5b6101e0600160a060020a0360043516610544565b60405190815260200160405180910390f35b34156103f957600080fd5b6101e0600160a060020a03600435166106ef565b60405190815260200160405180910390f35b341561042a57600080fd5b6101e0600160a060020a0360043516610701565b60405190815260200160405180910390f35b341561045b57600080fd5b6101c5600160a060020a0360043516610724565b005b341561047c57600080fd5b6101e0610767565b60405190815260200160405180910390f35b34156104a157600080fd5b6101e061076d565b60405190815260200160405180910390f35b34156104c657600080fd5b6101c5600160a060020a0360043516610773565b005b34156104e757600080fd5b6101c5600435610819565b005b34156104ff57600080fd5b6101e0600160a060020a0360043516610833565b60405190815260200160405180910390f35b600160a060020a0381166000908152602081905260409020545b919050565b600160a060020a03811660009081526020819052604081205481808061056986610701565b9250600a5484029150600090505b82811015610594576064825b04600a02820391505b600101610577565b600a54828115156105a157fe5b0494505b50505050919050565b600a54600090820281806064835b04600a029150600a54828115156105cf57fe5b0490508093505b505050919050565b600160a060020a033016315b90565b60075481565b600160a060020a0381166000908152600160205260409020545b919050565b600a5481565b6003545b90565b600454600160a060020a031681565b600454600160a060020a03165b90565b6002545b90565b60095460009060ff16151560011461065c57600080fd5b60085442101561066b57600080fd5b61067e30600160a060020a0316316105ae565b600380546001019055905061069242610845565b600454600160a060020a031681156108fc0282604051600060405180830381858888f1935050505015156106c557600080fd5b5b5b5b50565b600781905560065481016008556009805460ff191660011790555b50565b60055481565b60016020526000908152604090205481565b600160a060020a038116600090815260016020526040902054600354035b919050565b600454600160a060020a03161561073a57600080fd5b6004805473ffffffffffffffffffffffffffffffffffffffff1916600160a060020a0383161790555b5b50565b60085481565b60065481565b60095460009060ff16151560011461078a57600080fd5b8180600160a060020a031633600160a060020a03161415156107ab57600080fd5b6107b483610544565b60028054600019019055600160a060020a0384166000818152602081815260408083208390556001909152808220919091559193509083156108fc0290849051600060405180830381858888f19350505050151561081157600080fd5b5b5b505b5050565b60095460ff161561082957600080fd5b60068190555b5b50565b60006020819052908152604090205481565b60078190556006546008805490910190555b505600a165627a7a7230582025bfee03b0bd63538ab148d7d419a6638e28c982b025a443bb162d850c3674580029",
  "schema_version": "0.0.5",
  "updated_at": 1505460524740
}